:020000040800F2
:1000000000400020C11C0008A91B0008AB1B000811
:10001000AD1B0008AF1B0008B11B0008000000006A
:10002000000000000000000000000000B31B0008FA
:10003000B51B000800000000B71B0008B91B000832
:10004000111D0008111D0008111D0008111D0008D8
:10005000111D0008111D0008111D0008111D0008C8
:10006000111D0008111D0008111D0008111D0008B8
:10007000111D0008111D0008111D0008111D0008A8
:10008000111D0008111D0008111D0008111D000898
:10009000111D0008111D0008111D0008111D000888
:1000A000111D0008111D0008111D0008111D000878
:1000B000111D00080000000000000000111D0008D4
:1000C000111D0008111D0008111D0008000000008E
:1000D000111D0008111D0008111D0008111D000848
:1000E000111D0008111D0008111D0008000000006E
:1000F0000000000000000000000000000000000000
:10010000000000000000000000000000111D0008B9
:100110000000000000000000111D000800000000A9
:1001200000000000000000000000000000000000CF
:1001300000000000000000000000000000000000BF
:10014000111D0008111D0008000000000000000043
:10015000000000000000000000000000000000009F
:10016000111D0008111D0008111D0008111D0008B7
:10017000111D000800000000000000000000000049
:0801800000000000111D000841
:1001880010B5054C237833B9044B13B10448AFF3C9
:1001980000800123237010BD7000002000000000C3
:1001A800781E000808B5034B1BB103490348AFF399
:1001B800008008BD0000000074000020781E0008C0
:1001C80038B50E4A0E4B054618784FF47A73B3FBD0
:1001D800F0F31068B0FBF3F000F094F8044658B957
:1001E8000F2D09D8024629464FF0FF3000F056F887
:1001F800044B20461D6038BD012038BD0800002092
:100208000000002004000020074A08B5136843F0E6
:1002180010031360032000F02FF80020FFF7D0FF31
:1002280001F0A2FC002008BD00200240034A044B54
:1002380011681B780B441360704700BF98000020BA
:1002480000000020014B1868704700BF980000208C
:1002580038B50446FFF7F6FF631C1CBF054B1B7837
:10026800054618BFE418FFF7EDFF401B8442FAD893
:1002780038BD00BF00000020074AD36823F4E063BC
:100288001B041B0C43F0BF63000243F4003300F46B
:10029800E0600343D360704700ED00E0174B30B5D2
:1002A800DC68C4F30224C4F10703251D042B28BF0E
:1002B8000423062D4FF0010505FA03F303F1FF337C
:1002C8008CBF033C00241940A14005FA04F4013C0A
:1002D8002240002842EA01024FEA0212AFBF00F1B1
:1002E800604000F00F00064BD2B2A5BF00F5614098
:1002F800D2B21A5480F8002330BD00BF00ED00E0F0
:1003080014ED00E00138B0F1807F0AD2064B074AAD
:100318005860F02182F823100020072298601A60A4
:1003280070470120704700BF10E000E000ED00E0DA
:100338002DE9F04F85B00B68DFF86481564A0193C8
:100348004FF00F090023019CDC4002D105B0BDE845
:10035800F08F012404FA03FA019C14EA0A0500F05C
:1003680093804C6824F0100BBBF1020F11D1DF0809
:1003780000EB870703F0070E3E6A4FEA8E0E09FA74
:100388000EFC26EA0C0C0E6906FA0EF646EA0C0676
:100398003E624FEA430C0327066807FA0CF7FF434F
:1003A80004F0030E3E400EFA0CFE0BF1FF3B4EEA42
:1003B8000606BBF1010F066011D8866806EA070B2E
:1003C800CE6806FA0CFE4EEA0B068660466826EAF8
:1003D8000A0AC4F300169E4046EA0A064660C66842
:1003E80037408E6806FA0CF63743E600C7604BD5EF
:1003F800D8F8186046F00106C8F81860D8F81860F0
:1004080023F0030707F1804706F0010607F5803758
:10041800039603F0030E039EBE684FEA8E0E09FA98
:100428000EFCB0F1904F26EA0C0C2FD01B4EB042B8
:100438002ED006F58066B0422CD006F58066B04214
:1004480014BF0526032606FA0EF646EA0C06BE6019
:100458001668EF4314F4803F0CBF3E402E431660ED
:10046800566814F4003F0CBF3E402E435660966811
:1004780014F4801F0CBF3E402E439660D668A40239
:1004880054BF3E402E43D66001335CE70026DAE7CE
:100498000126D8E70226D6E70004014000040048F8
:1004A800001002400AB1816170478162704710B53F
:1004B800044600284AD090F8413003F0FF021BB9E7
:1004C80080F8402001F036FA242384F8413023686C
:1004D800E1681A6822F001021A60626822F070620C
:1004E8001A619A68012922F400429A60A26824D10C
:1004F80042F400429A605A68616942F0007242F41C
:1005080000425A60DA6822F40042DA6022690A433B
:10051800A16942EA0122DA60216AE2690A431A60A3
:100528001A6842F001021A6000202023606484F8EF
:100538004130206384F8420010BD42F4044202298D
:100548009A6004BF4FF400625A60D4E7012010BDDE
:1005580090F84120D2B2202A10B51DD190F8403031
:10056800012B19D0242380F8413003681C6824F03B
:1005780001041C601C6824F480541C601C6821431E
:100588001960196841F001011960002380F84120C1
:1005980080F84030184610BD022010BD10B590F804
:1005A8004140E4B2202C1CD190F84030012B18D0E7
:1005B800242380F8413003681A6822F001021A6087
:1005C8001A6822F4706242EA012119601A6842F03E
:1005D80001021A60002380F8414080F84030184634
:1005E80010BD022010BD00002DE9F347054618B9DB
:1005F800012002B0BDE8F0870368DA0711D42B6840
:100608009B0700F185802B681C0700F1F6802B689A
:10061800580700F13F81EA69002A40F0D68100209E
:10062800E7E7BA4C636803F00C03042B07D0636850
:1006380003F00C03082B16D16368DF0313D54FF4BE
:10064800003393FAA3F2216893FAA3F3B3FA83F37E
:1006580003F01F03012202FA03F30B42CFD06B68A9
:10066800002BCCD1C4E76A68B2F5803F25D1236856
:1006780043F480332360E36AA96823F00F030B4334
:10068800E36252B3FFF7DEFD4FF4003680460127E0
:1006980096FAA6F3226896FAA6F3B3FA83F303F060
:1006A8001F0307FA03F31342A9D1FFF7CBFDA0EB11
:1006B80008006428ECD903209BE7236832B923F4A7
:1006C80080332360236823F48023D3E7B2F5A02F77
:1006D800F5D143F480232360C9E7FFF7B3FD4FF456
:1006E80000368046012796FAA6F3226896FAA6F302
:1006F800B3FA83F303F01F0307FA03F313423FF43B
:100708007EAFFFF79FFDA0EB08006428EBD9D2E786
:100718007E4C636813F00C0F07D0636803F00C037A
:10072800082B22D16368DE031FD4022393FAA3F2B5
:10073800216893FAA3F3B3FA83F303F01F030122AA
:1007480002FA03F30B4203D02B6993427FF450AFB4
:100758002168F82393FAA3F3B3FA83F26B69934001
:1007680021F0F802134323604DE72A6901260AB3F2
:1007780096FAA6F3B3FA83F303F1845303F58413CB
:100788009B0002271E60FFF75DFD804697FAA7F3DE
:10079800226897FAA7F3B3FA83F303F01F0306FA64
:1007A80003F31342D4D1FFF74DFDA0EB0800022854
:1007B800ECD980E796FAA6F3B3FA83F303F18453EE
:1007C80003F584139B0002271A60FFF73BFD804660
:1007D80097FAA7F3226897FAA7F3B3FA83F303F01B
:1007E8001F0306FA03F313423FF40DAFFFF72AFD88
:1007F800A0EB08000228EBD95DE7AA69434E4449FB
:1008080001241AB394FAA4F3B3FA83F30B449B00BC
:1008180002271C60FFF716FD804697FAA7F397FAA0
:10082800A7F397FAA7F3726A97FAA7F3B3FA83F3D1
:1008380003F01F0304FA03F313427FF4E8AEFFF753
:1008480001FDA0EB08000228E7D934E794FAA4F3E5
:10085800B3FA83F30B449B0002271A60FFF7F2FCFC
:10086800804697FAA7F397FAA7F397FAA7F3726A5D
:1008780097FAA7F3B3FA83F303F01F0304FA03F319
:1008880013423FF4C4AEFFF7DDFCA0EB08000228DA
:10089800E7D910E71D4CE369D90034D4E36943F084
:1008A8008053E361E36903F080530193019B0126C0
:1008B800184F3B68DA052FD5EB68012B3DD1236A29
:1008C80043F001032362FFF7BDFC02278246B946C5
:1008D8004FF0010897FAA7F397FAA7F3002B6CD00B
:1008E800226A99FAA9F3B3FA83F303F01F0308FA0B
:1008F80003F3134258D0002E3FF48DAEE36923F082
:100908008053E36187E60026D2E700BF001002406B
:1009180020819010007000403B6843F480733B6076
:10092800FFF790FC80463B68DB05C5D4FFF78AFCDF
:10093800A0EB08006428F6D9BDE63BBB236A23F088
:1009480001032362236A23F004032362FFF77AFC7E
:1009580002278246B9464FF0010897FAA7F397FA9B
:10096800A7F373B3226A99FAA9F3B3FA83F303F0EE
:100978001F0308FA03F31342BDD0FFF763FC41F2EB
:100988008833A0EB0A009842E7D994E6052B236A3E
:1009980003D143F00403236291E723F001032362A8
:1009A800236A23F004038DE7FFF74CFC41F28833F8
:1009B800A0EB0A0098428DD97DE697FAA7F3626A00
:1009C8008FE797FAA7F3626ACDE7414C636803F0B3
:1009D8000C03082B3FF40CAE022A4FF0807352D15F
:1009E80093FAA3F3B3FA83F303F1845303F584135F
:1009F8009B0000221A60FFF725FC4FF00077804625
:100A0800012697FAA7F3226897FAA7F3B3FA83F3B4
:100A180003F01F0306FA03F313422DD162686B6AD1
:100A2800296A22F474120B43134363604FF08073F6
:100A380093FAA3F3B3FA83F303F1845303F584130E
:100A48009B004FF000751E60FFF7FCFB0126074670
:100A580095FAA5F3226895FAA5F3B3FA83F303F0A0
:100A68001F0306FA03F313427FF4D9ADFFF7EAFB3D
:100A7800C01B0228ECD91EE6FFF7E4FBA0EB080038
:100A88000228BED917E693FAA3F3B3FA83F303F166
:100A9800845303F584139B0000221A60FFF7D2FBEE
:100AA8004FF000750746012695FAA5F3226895FAD6
:100AB800A5F3B3FA83F303F01F0306FA03F3134213
:100AC8003FF4ADADFFF7BEFBC01B0228ECD9F2E541
:100AD8000010024010B5134C616801F00C03082B9C
:100AE8001ED14FF4701393FAA3F301F47012B3FA02
:100AF80083F322FA03F30C4AD05CE36A0F2292FADA
:100B0800A2F2B2FA82F203F00F03D340074AD25C92
:100B1800CB034ABF064B074BB3FBF2F3584310BD58
:100B2800034810BD00100240901E0008A01E0008D7
:100B380000127A0000093D002DE9F0410D460446F7
:100B480010B90120BDE8F0814C4A136803F007038F
:100B58008B422ED32268910736D4D2073CD4474A19
:100B6800136803F007039D4275D32268444D12F0C1
:100B7800040F7CD1130706D56B68226923F46053F0
:100B880043EAC2036B60FFF7A5FF6B68F02292FA95
:100B9800A2F2B2FA82F203F0F003D340394AD35CEE
:100BA800D840394B18600020FFF70AFB0020BDE849
:100BB800F081136823F007030B431360136803F0F5
:100BC80007039942BDD1C5E72D49A0684B6823F0BA
:100BD800F00303434B60C0E76268294E012A27D11E
:100BE8004FF4003393FAA3F1316893FAA3F3B3FAFD
:100BF80083F303F01F0302FA03F30B42A1D07368D7
:100C080023F003031A437260FFF71CFB41F2883894
:100C180007467368626803F00C03B3EB820F9ED03B
:100C2800FFF710FBC01B4045F3D90320BDE8F08156
:100C3800022A0CBF4FF00073022393FAA3F1306825
:100C480093FAA3F3B3FA83F303F01F03012101FA24
:100C580003F30342D2E7136823F007032B4313601F
:100C6800136803F007039D427FF46BAF7DE76B6861
:100C7800E16823F4E0630B436B607BE700200240EC
:100C880000100240B41E000808000020084B4FF472
:100C9800E0625B6892FAA2F2B2FA82F203F4E063CD
:100CA800D340044AD35C044A1068D840704700BF58
:100CB80000100240C41E000808000020084B4FF432
:100CC80060525B6892FAA2F2B2FA82F203F46053BD
:100CD800D340044AD35C044A1068D840704700BF28
:100CE80000100240C41E00080800002003682DE917
:100CF800F347DD03044622D5724DEB69D80000F1B5
:100D08008580EB6943F08053EB61EB6903F0805316
:100D18000193019B01266C4F3B68D90578D52B6A56
:100D280013F4407340F089802B6A626823F440739F
:100D380013432B621EB1EB6923F08053EB612068EB
:100D4800C50706D55F4AA168136B23F003030B435D
:100D58001363810606D55B4AE168136B23F0100321
:100D68000B431363820306D5564A216B536823F459
:100D780080030B435360430606D5524A2169136B1F
:100D880023F020030B431363070406D54D4A61691A
:100D9800136B23F040030B431363860506D5494ABA
:100DA800E169536823F400030B435360050606D535
:100DB800444AA169D36A23F4F8730B43D362C1048C
:100DC80006D5404A216A136B23F480730B431363DF
:100DD800420306D53B4A616A136B23F480630B43D5
:100DE8001363030306D5374AA16A136B23F4006320
:100DF8000B43136310F480101CD0324AE16A136B62
:100E080023F400530B431363002013E0002682E70A
:100E18003B6843F480733B60FFF714FA80463B68F5
:100E2800DA053FF57CAFFFF70DFAA0EB0800642860
:100E3800F5D9032002B0BDE8F087626802F4407279
:100E480093423FF471AF296A4FF4803321F4407024
:100E580093FAA3F2DFF874E0B2FA82F272449200D5
:100E68000127176093FAA3F3B3FA83F373449B0043
:100E780000221A60CB0728627FF556AFFFF7E2F928
:100E88004FF002088246C14698FAA8F398FAA8F3E8
:100E9800A3B12A6A99FAA9F3B3FA83F303F01F03FB
:100EA80007FA03F313427FF43FAFFFF7CBF941F2A0
:100EB8008833A0EB0A009842E6D9BAE798FAA8F373
:100EC8006A6AE7E700100240007000400081901055
:100ED80003685A6822F0E0025A604268B2F5827FDD
:100EE8000AD18268B2F5004F02D0B2F5806F03D103
:100EF8001A6822F040021A60826AB2F5005F07D1D0
:100F08001A6822F400521A601A6842F400521A60F1
:100F1800012380F85D30002380F85C30032070479F
:100F280070B505460C4616462B68986810F0800088
:100F38000DD0621CF9D024B92846BDE87040FFF7EF
:100F4800C7BFFFF77FF9801B8442EDD8F4E770BD77
:100F5800F7B506460C4615461F4631688868204096
:100F68000ED0B4F5C06F01BF0A7BD2B28DF807204E
:100F78009DF807306B1CF1D025B93046FFF7A8FF64
:100F880003B0F0BDFFF75EF9C01B8542E5D8F4E772
:100F980070B513460D4616460A464FF4C05104462E
:100FA800FFF7D6FF28B1236E43F020032366032002
:100FB8000FE0324629462046FFF7B2FF0028F2D15B
:100FC80033462A464FF4C0612046FFF7C1FF002888
:100FD800E9D170BDF8B54368B3F5827F04460E4683
:100FE80017460BD18368B3F5004F02D0B3F5806F75
:100FF80004D123681A6822F040021A603A46314642
:101008002046FFF78DFF054628B1236E43F02003E5
:101018002366032513E06368B3F5827F0FD1A368C5
:10102800B3F5004F02D0B3F5806F08D13B46324686
:101038004FF4C0612046FFF78BFF0028E5D1284612
:10104800F8BD70B5044600284ED00023836290F89E
:101058005D3003F0FF021BB980F85C2000F014FD3E
:101068000223216884F85D300B68E26823F04003AE
:10107800B2F5E06F0B604FF0000332D91846B2F5B5
:10108800706F18BFA362236B2BB9B2F5E06F8CBFEA
:10109800022301232363A6686368A569334326698D
:1010A800334366693343E6693343266A3343A66AA2
:1010B800334305F4007633430B60636A1A43636B6A
:1010C8002D0C1A4305F004052A4302434A60CB69F4
:1010D80023F40063CB6100200123206684F85D308F
:1010E80070BD4FF48050CCE7012070BD2DE9F84366
:1010F8001F4690F85C30DDF82080012B04460D4631
:10110800164600F01C81012380F85C30FFF79AF83E
:1011180094F85D306168DBB2012B81460AD0B1F5E5
:10112800827F40F00881A268002A40F00481042BE5
:1011380040F00181002D00F00081002E00F0FD80BC
:10114800002F00F0FA8094F85D30E0682664042BE4
:101158001CBF052384F85D300023B0F5E06F2366DB
:10116800E364A4F846702365A4F84470A563E78790
:10117800A787236804D8B4F8462092B2012A2ED94A
:101188005A6822F480525A601A6857065EBF1A6875
:1011980042F040021A60B0F5E06F58D919B1E28FF9
:1011A80092B2012A06D135F8022BDA60E38F013BAF
:1011B8009BB2E3870127E38F9BB2A3B9B4F846300B
:1011C8009BB283B94A4641462046FFF7E1FE002814
:1011D80040F0AE80206E003018BF01202FE05A6822
:1011E80042F48052CFE777B1E38F9BB25BB12368BB
:1011F8009A68920707D535F8022BDA60E38F013B2E
:101208009BB2E3870027B4F846309BB26BB12368E2
:101218009A68D00709D5DB6826F8023BB4F846304F
:10122800013B9BB2A4F846300127B8F1FF3FC2D07A
:10123800FFF708F8A0EB09008045BCD8032001237C
:1012480084F85D30002384F85C30BDE8F88319B178
:10125800E28F92B2012A0AD1E28F92B2012A4DD9C5
:1012680035F8022BDA60E38F023B9BB2E387012754
:10127800E38F9BB223B9B4F846309BB2002BA1D0C0
:1012880097B1E38F9BB27BB123689A6891070BD51E
:10129800E28F92B2012A39D935F8022BDA60E38F4E
:1012A800023B9BB2E3870027B4F846309BB2DBB120
:1012B80023689A68D20717D5B4F8462092B2012A53
:1012C8002CD9DA6826F8022BB4F84620023A92B2F2
:1012D800A4F84620B4F8462092B2012A03D85A68E6
:1012E80042F480525A600127B8F1FF3FC0D0FEF7A0
:1012F800A9FFA0EB09008045BAD89FE72A781A739E
:10130800E38F013B9BB2E3870135B0E72A781A7374
:10131800E38F013B9BB2E3870135C4E71B7B337046
:10132800B4F84630013B9BB2A4F846300136DAE700
:10133800202323664EE7022081E701207FE7022071
:10134800BDE8F8832DE9F3411D464368B3F5827F74
:1013580004460E4690460CD1836853B9042380F89E
:101368005D30134600950A46FFF7C0FE02B0BDE89F
:10137800F08194F85C30012B00F08B80012384F815
:101388005C30FEF75FFF074694F85D00C0B20128A5
:101398007DD1002E5FD0B8F1000F5CD0042384F813
:1013A8005D302168E268266400232366A4F846803D
:1013B800E387A363A387E36423654B68A4F84480A9
:1013C800B2F5E06F8CBF23F4805343F480534B6035
:1013D800A368B3F5004F02BF0B6823F480430B608A
:1013E8000B685B065EBF0B6843F040030B60B2F509
:1013F800E06F1ED9B4F846309BB2FBB123689A68F7
:10140800D20737D5DB6826F8023BB4F84630013BF3
:101418009BB2A4F84630EDE723689A68D00718D540
:101428001B7B06F8013BB4F84630013B9BB2A4F89D
:101438004630B4F846309BB2002BEDD13A462946E7
:101448002046FFF7C7FDF8B9206E003018BF01200D
:1014580001E03DB90320012384F85D30002384F8BE
:101468005C3083E7691CE4D0FEF7ECFEC01B8542C4
:10147800DFD8EFE7002DEDD06B1CBBD0FEF7E2FE06
:10148800C01B8542B6D8E5E720232366DCE70220A7
:10149800E1E702206AE7000038B5044605682169DB
:1014A800A368C26928680B4361690B434949134320
:1014B80001400B432B606B68E168206A23F44053BA
:1014C8000B436B60A968A36921F4306103430B43A4
:1014D800AB60414B9D4212D103F558433F491B6B0A
:1014E80003F00303B2F5004FCB5C3BD1082B36D891
:1014F800DFE803F00F2124352D3535353000384B22
:101508009D4203D003F580639D425ED1B2F5004F42
:1015180031D1FFF7BBFB61684A0802EB4003B3FB1C
:10152800F1F39BB2002023F00F022168C3F34203BA
:101538001343CB6038BDFFF7C1FBECE76068430895
:1015480003F5740303F51053B3FBF0F3E9E7FFF772
:10155800C1FAE0E76068430803F58033F4E7012047
:101568000023E0E7082B33D8DFE803F005101B322F
:10157800273232322A00FFF789FB636800EB5300F9
:10158800B0FBF3F080B2E860002038BDFFF796FBAF
:10159800636800EB5300B0FBF3F00F4B80B2D860E8
:1015A800F2E76268530803F5F40303F59053B3FBBD
:1015B800F2F3094A9BB2D360E6E7FFF78BFAE7E755
:1015C8006268530803F50043F1E7B2F5004FC6D04F
:1015D800012038BDF369FFEF00380140B01E000854
:1015E80000440040436ADA0710B506D50168846AEA
:1015F8004A6822F4003222434A609C0706D50168F3
:10160800C46A4A6822F4803222434A60590706D5E0
:101618000168046B4A6822F4802222434A601A0750
:1016280006D50168446B4A6822F4004222434A60A6
:10163800DC0606D50168846B8A6822F4805222434E
:101648008A60990606D50168C46B8A6822F400523C
:1016580022438A605A060FD50168046C4A6822F44E
:1016680080122243B4F5801F4A6005D14A68446C51
:1016780022F4C00222434A601B0606D50268816C28
:10168800536823F400230B43536010BD2DE9F04148
:10169800069D04460F46164698462168CA6937EAE9
:1016A80002030CBF01220022B24202D00020BDE892
:1016B800F0816B1CF2D09DB923681A6822F4D072AD
:1016C8001A609A6822F001029A60202384F869302F
:1016D80084F86A30002384F868300320BDE8F0817C
:1016E800FEF7B0FDA0EB08008542D6D2E4E773B55B
:1016F80004460026C666FEF7A5FD23681B681A0780
:10170800054617D423681B685B070AD56FF07E432C
:10171800009300222B464FF480012046FFF7B6FFC6
:10172800A0B92023002084F8693084F8680084F880
:101738006A300CE06FF07E430093324603464FF464
:1017480000112046FFF7A2FF0028DBD0032002B0DB
:1017580070BD10B5044660B390F8693003F0FF021D
:101768001BB980F8682000F077FA2268242384F8EF
:101778006930136823F0010313602046FFF78CFEDD
:10178800012816D0636A13B12046FFF72BFF2368A0
:101798005A6822F490425A609A6822F02A029A60A3
:1017A8001A6842F0010220461A60BDE81040FFF7AF
:1017B8009EBF012010BD10B5C3680446984740F687
:1017C800FF73800290FBF3F007EE900AB8EEE70A89
:1017D80084ED010A10BD007A7047000013B54FF080
:1017E800FF330446012201A90648FFF7ABFD9DF827
:1017F80005309DF8040040EA0320C008208002B0AC
:1018080010BD00BFE800002008B5182000F0A2FABB
:1018180050B1002303720380044B4361044B0361FE
:101828000022044B4260C36008BD00BFDF170008F8
:10183800BF170008E517000870B514228AB00DEB31
:101848000200002100F08EFA204B214D5A6942F423
:1018580000225A615A6902F400220192019A5A69D7
:1018680042F480025A615A6902F480020292029A92
:101878005A6942F400325A615A6902F400320392FA
:10188800039A5A6942F480225A615B6903F48023FF
:101898000022049328464FF400510024049B4FF47F
:1018A8000056FEF7FFFD0B4B0B48069305A905965E
:1018B8000794FEF73DFD012305A9284605960693E2
:1018C80007940894FEF734FD0AB070BD001002407A
:1018D80000040048000021100008004808B512481C
:1018E800124B1349012280E80A0000238360C2607A
:1018F800036143618361C3610362FEF7D8FD08B1E8
:1019080000F098F800210848FEF722FE08B100F020
:1019180091F800210448FEF741FE18B1BDE80840DF
:1019280000F088B808BD00BF9C0000200E09002008
:101938000058004010B5044688B01422002103A8BE
:1019480000F010FA2268144B9A4222D1134C6369B2
:1019580043F400336361636903F400330193019B2B
:101968004FF4C063039312230493012305930323C5
:10197800069303A904234FF090400793FEF7D8FC81
:10198800E36943F48003E361E36903F480030293AA
:10199800029B08B010BD00BF005800400010024074
:1019A80030B59DB02822002105A800F0DBF91422EB
:1019B8000021684600F0D6F9342200210FA800F073
:1019C800D1F901230993102302240A9305A84FF49F
:1019D80060130E9305940C94FEF706FE0F23002562
:1019E8008DE8180021464FF48063684603930295FA
:1019F8000495FFF7A1F840230FA80F931395FFF75D
:101A080075F91DB030BD10B5FFF7FEFE0446FEF7B0
:101A1800FBFBFFF7C5FFFFF70FFF00F0FFF8FFF72D
:101A28005DFF00F009F82046236998476420FEF717
:101A38000FFCF8E770470000114812494FF4706234
:101A480008B54FF48273C2604FF4802280E80A0020
:101A5800826100233822836003614361C2610362AB
:101A680043628362072203630823C2624363FFF76A
:101A7800E8FA18B1BDE80840FFF7DCBF08BD00BFB1
:101A8800E8000020003C00402DE9F04114228AB013
:101A9800044600210DEB020000F064F922682F4B88
:101AA8009A4257D103F5EA330224DA6942F4004234
:101AB800DA61DA6902F400420192019A5A6942F441
:101AC80000325A615A6902F400320292029A5A6943
:101AD80042F400225A615A6902F400220392039ADE
:101AE8005A6942F480225A615B69069403F48023A0
:101AF800049303260625049B089601234FF010083B
:101B080005A94FF090400793CDF814800995FEF78A
:101B18000FFC4FF4806305A911480593002706942C
:101B2800079408960995FEF703FC4FF4805305A91E
:101B38000B4805930694079708960995FEF7F8FB56
:101B480005A90848CDF814800694079708960995C2
:101B5800FEF7EEFB0AB0BDE8F08100BF003C004094
:101B680000080048000400480C4B07B59A6942F089
:101B780001029A619A6902F001020092009ADA69F8
:101B880042F08052DA61DB6903F080530193072049
:101B9800019BFEF771FB03B05DF804FB00100240E7
:101BA8007047FEE7FEE7FEE7FEE7704770477047BD
:101BB800FEF73CBB1549D1F8883043F47003C1F8EF
:101BC8008830134B1A6842F001021A605868114AAB
:101BD80002405A601A6822F0847222F480321A6035
:101BE8001A6822F480221A605A6822F4FE025A60A7
:101BF800DA6A22F00F02DA62186B074A02401A63A7
:101C080000229A604FF000638B60704700ED00E09F
:101C1800001002400CC07FF8CCFC00FF08B50C484F
:101C28000C4B4FF4164E80E808400C2200238360CA
:101C3800C360036142618361C36103624362FFF76A
:101C480088FD18B1BDE80840FFF7F4BE08BD00BF25
:101C58004C0100200044004010B5044688B014220E
:101C6800002103A800F07EF82268124B9A421ED188
:101C780003F5E63303A9DA6942F40032DA61DA6976
:101C880002F400320192019A5A6942F400325A6110
:101C98005B6903F400330293029B0C230393022332
:101CA80004934FF0904007230793FEF741FB08B0D9
:101CB80010BD00BF00440040DFF834D0002103E02D
:101CC8000C4B5B58435004310B480C4B42189A425A
:101CD800F6D30B4A02E0002342F8043B094B9A4230
:101CE800F9D3FFF767FF00F011F8FFF78CFEFEE766
:101CF80000400020D41E00080000002070000020D2
:101D080070000020C0010020FEE7000070B50D4EF5
:101D18000D4CA41BA4100025A54209D10B4E0C4C58
:101D280000F0A6F8A41BA4100025A54205D170BD9B
:101D380056F8253098470135EEE756F8253098478C
:101D48000135F2E7CC1E0008CC1E0008CC1E0008A6
:101D5800D01E0008024B0146186800F00BB800BFFF
:101D68000C00002002440346934200D1704703F858
:101D7800011BF9E770B5CD1C25F0030508350C2DBE
:101D880038BF0C25002D064601DBA94203D90C23D8
:101D98003360002070BD00F05BF8234A14682146C8
:101DA80091B9224C23681BB9304600F041F82060F5
:101DB8002946304600F03CF8431C26D10C233360FA
:101DC800304600F046F8E4E70B685B1B1AD40B2B8F
:101DD8000FD90B60CD50CC18304600F03AF804F11A
:101DE8000B00231D20F00700C31A1BD05A42E250F3
:101DF80070BD8C420DBF63684B686360136018BF89
:101E08000C46E9E70C464968CAE7C41C24F00304F9
:101E1800A04205D0211A304600F00AF80130CDD092
:101E28002560D9E770BD00BF8C000020900000201D
:101E380038B5064C002305460846236000F00AF82A
:101E4800431C02D1236803B12B6038BDBC010020BC
:101E580070477047044B1968024609B9034919606D
:101E6800186802441A60704794000020C0010020DE
:101E7800F8B500BFF8BC08BC9E467047F8B500BF6F
:081E8800F8BC08BC9E4670473F
:101E900002030405060708090A0B0C0D0E0F1010AB
:101EA0000102030405060708090A0B0C0D0E0F10AA
:101EB000000408020000000000000000010203040A
:0C1EC000060708090000000001020304EE
:041ECC00AD0100085C
:041ED000890100087C
:101ED400010000001000000000127A001000002031
:101EE40000000000000000000000000000000000EE
:101EF40000000000000000000000000000000000DE
:101F040000000000000000000000000000000000CD
:101F140000000000000000000000000000000000BD
:101F240000000000000000000000000000000000AD
:101F3400000000000000000000000000000000009D
:0400000508001CC112
:00000001FF
